:020000000A28CC
:10000800FE00030EF0000A08F1003F290B2801301A
:0C001800F601F701F801F9008301082946
:10020000FF0001308A007F0882070529AA295629A4
:1002100007309900F03083169F0583121F10831654
:100220000F128F120F131030831285000C308316BB
:10023000850001178B100B168B178312051D2129C2
:100240009821790800212129F5018721DD30F3006B
:1002500029292A29F30B28292D290330F50A7502AB
:10026000031C2529831285160830F4000A30F30098
:10027000F30B3829F40B38298312851208008B18E8
:100280008B1083120C1C4F290C10E5308F00263088
:100290008E00F030F601F60A7802031CF80A7108A5
:1002A0008A00700E8300FE0E7E0E0900760B682910
:1002B0000430F601780203185E2987210310F70D38
:1002C00083120519F70A77080739031D6829902159
:1002D0008312851D0800A629831290121012901017
:1002E000E5308F0026308E000C1083160C140B178F
:1002F000831210140800FF30F2007208031908007E
:100300000310F20D8312851D7D29F20A7D298312C7
:1003100005120230F200F20B8B2983120516080039
:10032000F0307802031C952924210130F9009F291F
:100330000230F900F801F601F701F70A6C290C10F8
:1003400083160C100B1383121010080024217B213C
:08035000F80108006300982980
:02400E00D4F0EC
:00000001FF
