:020000000A28CC
:10000800FE00030EF0000A08F1004C290B2801300D
:0C001800F601F701F801F9008301082946
:10020000FF0001308A007F0882070529A829632999
:1002100007309900F03083169F0583121F10831654
:100220000F128F120F131030831285000C308316BB
:100230008500011783129012101290101010E530F3
:100240008F0026308E000C1083160C140B178B10A9
:100250000B168B178312051D2E2979217908002191
:100260002E29F5019B21DD30F30036293729F30BC8
:1002700035293A290530F50A7502031C3229831203
:1002800085160830F4000A30F300F30B4529F40B0F
:1002900045298312851208008B188B1083120C1CC1
:1002A0005C290C10E5308F0026308E00F030F6010E
:1002B000F60A7802031CF80A71088A00700E83009F
:1002C000FE0E7E0E0900760B75290430F6017802C9
:1002D00003186B299B210310F70D83120519F70AE8
:1002E00077080339031D752992218312851D0800A3
:1002F000A4290230F900E530F801F601F701F70A08
:1003000083128F0026308E0010140800FF30F20098
:100310007208031908000310F20D8312851D882945
:10032000F20A8829F0307802031C97293121013024
:10033000F90010100800831205120230F200F20BCF
:100340009F2983120516080031218621F801080033
:0403500063007929A4
:02400E00D4F0EC
:00000001FF
